:040000008A11112828
:10000800FE00030EF0000408F1000A08F200831253
:1000180003137F08F3008A1192298A117F298A1114
:1000280063218A11172883120313851E1C281D2893
:1000380001290130A0000030A100012901298A11FD
:10004800B3218A1183120313871387101F08C3393A
:100058001C389F009F1430289F18332834283028D4
:1000680035281E08F400F5017408F8007508F90031
:100078001F08C33918389F009F1442289F18452825
:100088004628422847281E08F400F5017408F6009F
:100098007508F7007908803AFF0080307F02031D59
:1000A800572878307802031C5A285B28802877085C
:1000B800803AFF0080307F02031D64287830760282
:1000C8000318672868288028831203138717871066
:1000D8008A11AC218A11C330F500CD30F400F40B3D
:1000E8007328F50B7328013083120313A60703182E
:1000F800A70A0030A70780287908803AFF008030D7
:100108007F02031D89287830780203188C288D28EF
:10011800B2287708803AFF0080307F02031D9628B6
:1001280078307602031C99289A28B2288312031380
:10013800871387148A11A5218A11C330F500CD30A1
:10014800F400F40BA528F50BA5280130831203133E
:10015800A6070318A70A0030A707B2287908803A2B
:10016800FF0080307F02031DBB2874307802031C17
:10017800BE28BF28E0287708803AFF0080307F0239
:10018800031DC82874307602031CCB28CC28E0282D
:1001980083120313270826040319D328D428E02838
:1001A8000130A4070318A50A0030A507871787148C
:1001B8008A110F218A11E0280430831203132406C0
:1001C8002504031DE828E928F7288A119E218A11A9
:1001D80083120313871387108717871487138710D1
:1001E80087178714F7284130F500EE30F400F40B38
:1001F800FB28F50BFB286400012901308312031347
:1002080020062104031909290A2923281728172851
:1002180017288A11112883120313AA01AB010616A5
:10022800061786130430AE00CF30AD000330AC00A3
:10023800AC0B1C29AD0B1C29AE0B1C2923293D290D
:1002480006160617861386127908803AFF00803052
:100258007F02031D312979307802031834293529A2
:100268003D29013083120313AA000030AB003D2959
:100278003D297908803AFF0080307F02031D462916
:1002880078307802031C49294A2962297708803A7C
:10029800FF0080307F02031D532979307602031C4A
:1002A8005629572962290130831203132A062B0481
:1002B800031D5F2960292429622962290800C030AA
:1002C8008B00831603130C171D30831203139F0032
:1002D8004030831203179E0001309F003030831690
:1002E8000313850086010C308700831203138501F0
:1002F800860187010800F601F701F801F901A0015C
:10030800A101A201A301A401A501A601A701A801B9
:10031800A901AA01AB0183018A1113280C137308E0
:10032800FF0072088A0071088400700E8300FE0EB8
:100338007E0E090083120313061286130613861213
:100348000800831203138617861606120613080080
:1003580083120313061606178613861208008312E3
:0C03680003138617061606138612080001
:02400E00D4F0EC
:00000001FF
